---
sidebar_position: 4
---
import GivenProvider from "@site/src/components/smart-contracts/eth-personal/given-provider";
import SetProvider from "@site/src/components/smart-contracts/eth-personal/set-provider";
import NewAccount from "@site/src/components/smart-contracts/eth-personal/new-account";
import Sign from "@site/src/components/smart-contracts/eth-personal/sign";
import SingTransaction from "@site/src/components/smart-contracts/eth-personal/sign-transaction";
import SendTransaction from "@site/src/components/smart-contracts/eth-personal/send-transaction";

# Tương tác với các tài khoản trên node

The `web3-eth-personal` package allows you to interact with the Ethereum node’s accounts.

:::note
Many of these functions send sensitive information like passwords. Never call these functions over a unsecured Websocket or HTTP provider, as your password will be sent in plain text!
:::
```javascript
var Personal = require('web3-eth-personal');

// "Personal.providers.givenProvider" will be set if in an Ethereum supported browser.
var personal = new Personal(Personal.givenProvider || 'ws://some.local-or-remote.node:8546');


// or using the web3 umbrella package

var Web3 = require('web3');
var web3 = new Web3(Web3.givenProvider || 'ws://some.local-or-remote.node:8546');

// -> web3.eth.personal
```
## setProvider
```javascript
web3.setProvider(myProvider)
web3.eth.setProvider(myProvider)
web3.shh.setProvider(myProvider)
web3.bzz.setProvider(myProvider)
...
```
Will change the provider for its module.

:::note

When called on the umbrella package web3 it will also set the provider for all sub modules web3.eth, web3.shh, etc. EXCEPT web3.bzz which needs a separate provider at all times.
:::
### Parameters
`Object` - myProvider: a valid provider.
### Returns
`Boolean`

### Example: Local Geth Node
```javascript
var Web3 = require('web3');
var web3 = new Web3('http://localhost:8545');
// or
var web3 = new Web3(new Web3.providers.HttpProvider('http://localhost:8545'));

// change provider
web3.setProvider('ws://localhost:8546');
// or
web3.setProvider(new Web3.providers.WebsocketProvider('ws://localhost:8546'));

// Using the IPC provider in node.js
var net = require('net');
var web3 = new Web3('/Users/myuser/Library/Ethereum/geth.ipc', net); // mac os path
// or
var web3 = new Web3(new Web3.providers.IpcProvider('/Users/myuser/Library/Ethereum/geth.ipc', net)); // mac os path
// on windows the path is: "\\\\.\\pipe\\geth.ipc"
// on linux the path is: "/users/myuser/.ethereum/geth.ipc"
```
### Example: Remote Node Provider
```javascript
// Using a remote node provider, like Alchemy (https://www.alchemyapi.io/supernode), is simple.
var Web3 = require('web3');
var web3 = new Web3("https://eth-mainnet.alchemyapi.io/v2/your-api-key");
```
### Trial
<SetProvider/>

## givenProvider
```javascript
web3.givenProvider
web3.eth.givenProvider
web3.shh.givenProvider
web3.bzz.givenProvider
...
```
When using web3.js in an Ethereum compatible browser, it will set with the current native provider by that browser. Will return the given provider by the (browser) environment, otherwise null.

### Returns
`Object`: The given provider set or null;
### Trial
<GivenProvider/>
## newAccount
```javascript
web3.eth.personal.newAccount(password, [callback])
Creates a new account.
```
:::note

Never call this function over a unsecured Websocket or HTTP provider, as your password will be sent in plain text!
:::
### Parameters
`password` - `String`: The password to encrypt this account with.
### Returns
`Promise` returns `String`: The address of the newly created account.

### Example
```javascript
web3.eth.personal.newAccount('!@superpassword')
.then(console.log);
> '0x1234567891011121314151617181920212223456'
```
### Trial
<NewAccount/>
## sign
```javascript
web3.eth.personal.sign(dataToSign, address, password [, callback])
```
The sign method calculates an Ethereum specific signature with:
```javascript
sign(keccak256("\x19Ethereum Signed Message:\n" + dataToSign.length + dataToSign)))
```
Adding a prefix to the message makes the calculated signature recognisable as an Ethereum specific signature.

If you have the original message and the signed message, you can discover the signing account address using web3.eth.personal.ecRecover. See example below.

:::note

Sending your account password over an unsecured HTTP RPC connection is highly unsecure.
:::
### Parameters
1. `String` - Data to sign. If String it will be converted using web3.utils.utf8ToHex.
2. `String` - Address to sign data with.
3. `String` - The password of the account to sign data with.
4. `Function` - (optional) Optional callback, returns an error object as first parameter and the result as second.
### Returns
`Promise` returns `String` - The signature.

### Example
```javascript
web3.eth.personal.sign("Hello world", "0x11f4d0A3c12e86B4b5F39B213F7E19D048276DAe", "test password!")
.then(console.log);
> "0x30755ed65396facf86c53e6217c52b4daebe72aa4941d89635409de4c9c7f9466d4e9aaec7977f05e923889b33c0d0dd27d7226b6e6f56ce737465c5cfd04be400"

// the below is the same
web3.eth.personal.sign(web3.utils.utf8ToHex("Hello world"), "0x11f4d0A3c12e86B4b5F39B213F7E19D048276DAe", "test password!")
.then(console.log);
> "0x30755ed65396facf86c53e6217c52b4daebe72aa4941d89635409de4c9c7f9466d4e9aaec7977f05e923889b33c0d0dd27d7226b6e6f56ce737465c5cfd04be400"

// recover the signing account address using original message and signed message
web3.eth.personal.ecRecover("Hello world", "0x30755ed65396...etc...")
.then(console.log);
> "0x11f4d0A3c12e86B4b5F39B213F7E19D048276DAe"
```
### Trial
<Sign/>
## signTransaction
```javascript
web3.eth.personal.signTransaction(transaction, password [, callback])
```
Signs a transaction. This account needs to be unlocked.

:::note

Sending your account password over an unsecured HTTP RPC connection is highly unsecure.
:::

### Parameters
1. `Object` - The transaction data to sign web3.eth.sendTransaction() for more.
2. `String` - The password of the from account, to sign the transaction with.
3. `Function` - (optional) Optional callback, returns an error object as first parameter and the result as second.
### Returns
`Promise` returns `Object` - The RLP encoded transaction. The raw property can be used to send the transaction using web3.eth.sendSignedTransaction.

### Example
```javascript
web3.eth.signTransaction({
    from: "0xEB014f8c8B418Db6b45774c326A0E64C78914dC0",
    gasPrice: "20000000000",
    gas: "21000",
    to: '0x3535353535353535353535353535353535353535',
    value: "1000000000000000000",
    data: ""
}, 'MyPassword!').then(console.log);
> {
    raw: '0xf86c808504a817c800825208943535353535353535353535353535353535353535880de0b6b3a76400008025a04f4c17305743700648bc4f6cd3038ec6f6af0df73e31757007b7f59df7bee88da07e1941b264348e80c78c4027afc65a87b0a5e43e86742b8ca0823584c6788fd0',
    tx: {
        nonce: '0x0',
        gasPrice: '0x4a817c800',
        gas: '0x5208',
        to: '0x3535353535353535353535353535353535353535',
        value: '0xde0b6b3a7640000',
        input: '0x',
        v: '0x25',
        r: '0x4f4c17305743700648bc4f6cd3038ec6f6af0df73e31757007b7f59df7bee88d',
        s: '0x7e1941b264348e80c78c4027afc65a87b0a5e43e86742b8ca0823584c6788fd0',
        hash: '0xda3be87732110de6c1354c83770aae630ede9ac308d9f7b399ecfba23d923384'
    }
}
```
### Trial
<SingTransaction/>
## sendTransaction
```javascript
web3.eth.personal.sendTransaction(transactionOptions, password [, callback])
```
This method sends a transaction over the management API.

:::note

Sending your account password over an unsecured HTTP RPC connection is highly unsecure.

### Parameters
1. `Object` - The transaction options
2. `String` - The passphrase for the current account
3. `Function` - (optional) Optional callback, returns an error object as first parameter and the result as second.
### Returns
`Promise<string>` - The transaction hash.

### Example
```javascript
web3.eth.personal.sendTransaction({
    from: "0xEB014f8c8B418Db6b45774c326A0E64C78914dC0",
    gasPrice: "20000000000",
    gas: "21000",
    to: '0x3535353535353535353535353535353535353535',
    value: "1000000000000000000",
    data: ""
}, 'MyPassword!').then(console.log);
> '0xda3be87732110de6c1354c83770aae630ede9ac308d9f7b399ecfba23d923384'
```
### Trial
<SendTransaction/>